:020000040800F2
:1000000000500020C5190008D5130008D7130008B8
:10001000D9130008DB130008DD13000800000000FE
:10002000000000000000000000000000DF130008D6
:10003000E113000800000000E3130008E5130008C6
:100040000D1A00080D1A00080D1A00080D1A0008F4
:100050000D1A00080D1A00080D1A00080D1A0008E4
:100060000D1A00080D1A00080D1A00080D1A0008D4
:100070000D1A00080D1A00080D1A00080D1A0008C4
:100080000D1A00080D1A00080D1A00080D1A0008B4
:100090000D1A00080D1A00080D1A00080D1A0008A4
:1000A0000D1A0008ED1300080D1A00080D1A0008BB
:1000B0000D1A00080D1A00080D1A00080D1A000884
:1000C0000D1A00080D1A00080D1A00080D1A000874
:1000D0000D1A0008211400080D1A00083114000838
:1000E0000D1A00080D1A00080D1A00080000000083
:1000F0000000000000000000000000000000000000
:0C01000000000000000000005FF808F1A3
:1001100081F0004102E000BF83F0004330B54FEAB8
:1001200041044FEA430594EA050F08BF90EA020F25
:100130001FBF54EA000C55EA020C7FEA645C7FEAB8
:10014000655C00F0E2804FEA5454D4EB5555B8BFDB
:100150006D420CDD2C4480EA020281EA030382EA4C
:10016000000083EA010180EA020281EA0303362DDE
:1001700088BF30BD11F0004F4FEA01314FF4801CB1
:100180004CEA113102D0404261EB410113F0004FC3
:100190004FEA03334CEA133302D0524263EB43037A
:1001A00094EA050F00F0A780A4F10104D5F1200E18
:1001B0000DDB02FA0EFC22FA05F2801841F1000173
:1001C00003FA0EF2801843FA05F359410EE0A5F147
:1001D00020050EF1200E012A03FA0EFC28BF4CF078
:1001E000020C43FA05F3C01851EBE37101F000452E
:1001F00007D54FF0000EDCF1000C7EEB00006EEB3B
:100200000101B1F5801F1BD3B1F5001F0CD34908C4
:100210005FEA30004FEA3C0C04F101044FEA44521B
:1002200012F5800F80F09A80BCF1004F08BF5FEAA2
:10023000500C50F1000041EB045141EA050130BD82
:100240005FEA4C0C404141EB0101013C28BFB1F594
:10025000801FE9D291F0000F04BF01460020B1FADF
:1002600081F308BF2033A3F10B03B3F120020CDAB2
:100270000C3208DD02F1140CC2F10C0201FA0CF090
:1002800021FA02F10CE002F11402D8BFC2F1200CF5
:1002900001FA02F120FA0CFCDCBF41EA0C019040AB
:1002A000E41AA2BF01EB0451294330BD6FEA0404F4
:1002B0001F3C1CDA0C340EDC04F11404C4F12002DF
:1002C00020FA04F001FA02F340EA030021FA04F3F1
:1002D00045EA030130BDC4F10C04C4F1200220FA48
:1002E00002F001FA04F340EA0300294630BD21FA86
:1002F00004F0294630BD94F0000F83F4801306BF4C
:1003000081F480110134013D4EE77FEA645C18BF3F
:100310007FEA655C29D094EA050F08BF90EA020FD6
:1003200005D054EA000C04BF1946104630BD91EACE
:10033000030F1EBF0021002030BD5FEA545C05D1D1
:100340004000494128BF41F0004130BD14F5800410
:100350003CBF01F5801130BD01F0004545F0FE4184
:1003600041F470014FF0000030BD7FEA645C1ABFB9
:10037000194610467FEA655C1CBF0B46024650EAF0
:10038000013406BF52EA033591EA030F41F400211C
:1003900030BD00BF90F0000F04BF0021704730B5A2
:1003A0004FF4806404F132044FF000054FF0000177
:1003B00050E700BF90F0000F04BF0021704730B538
:1003C0004FF4806404F1320410F0004548BF40420D
:1003D0004FF000013EE700BF42004FEAE2014FEA62
:1003E00031014FEA02701FBF12F07F4393F07F4F3D
:1003F00081F06051704732F07F4208BF704793F040
:100400007F4F04BF41F40021704730B54FF4607452
:1004100001F0004521F000411CE700BF50EA010255
:1004200008BF704730B54FF000050AE050EA0102FE
:1004300008BF704730B511F0004502D5404261EB6E
:1004400041014FF4806404F132045FEA915C3FF4AF
:10045000D8AE4FF003025FEADC0C18BF03325FEA4C
:10046000DC0C18BF033202EBDC02C2F1200300FAFD
:1004700003FC20FA02F001FA03FE40EA0E0021FA22
:1004800002F11444BDE600BF70B54FF0FF0C4CF410
:10049000E06C1CEA11541DBF1CEA135594EA0C0FC2
:1004A00095EA0C0F00F0DEF82C4481EA030621EAFD
:1004B0004C5123EA4C5350EA013518BF52EA033538
:1004C00041F4801143F4801338D0A0FB02CE4FF0EA
:1004D0000005E1FB02E506F00042E0FB03E54FF01A
:1004E0000006E1FB03569CF0000F18BF4EF0010E12
:1004F000A4F1FF04B6F5007F64F5407404D25FEA0E
:100500004E0E6D4146EB060642EAC62141EA5551C0
:100510004FEAC52040EA5E504FEACE2EB4F1FD0C02
:1005200088BFBCF5E06F1ED8BEF1004F08BF5FEA80
:10053000500E50F1000041EB045170BD06F0004632
:1005400046EA010140EA020081EA0301B4EB5C04DF
:10055000C2BFD4EB0C0541EA045170BD41F48011D7
:100560004FF0000E013C00F3AB8014F1360FDEBFFC
:10057000002001F0004170BDC4F10004203C35DAD8
:100580000C341BDC04F11404C4F1200500FA05F35B
:1005900020FA04F001FA05F240EA020001F00042FC
:1005A00021F0004110EBD37021FA04F642EB060172
:1005B0005EEA430E08BF20EAD37070BDC4F10C049C
:1005C000C4F1200500FA04F320FA05F001FA04F260
:1005D00040EA020001F0004110EBD37041F100014C
:1005E0005EEA430E08BF20EAD37070BDC4F1200557
:1005F00000FA05F24EEA020E20FA04F301FA05F2BF
:1006000043EA020321FA04F001F0004121FA04F266
:1006100020EA020000EBD3705EEA430E08BF20EA36
:10062000D37070BD94F0000F0FD101F00046400070
:1006300041EB010111F4801F08BF013CF7D041EAF2
:10064000060195F0000F18BF704703F000465200F6
:1006500043EB030313F4801F08BF013DF7D043EAC7
:100660000603704794EA0C0F0CEA135518BF95EA7D
:100670000C0F0CD050EA410618BF52EA4306D1D104
:1006800081EA030101F000414FF0000070BD50EA23
:10069000410606BF1046194652EA430619D094EAAD
:1006A0000C0F02D150EA013613D195EA0C0F05D197
:1006B00052EA03361CBF104619460AD181EA0301EB
:1006C00001F0004141F0FE4141F470014FF00000A3
:1006D00070BD41F0FE4141F4780170BD70B54FF03E
:1006E000FF0C4CF4E06C1CEA11541DBF1CEA1355BE
:1006F00094EA0C0F95EA0C0F00F0A7F8A4EB0504A0
:1007000081EA030E52EA03354FEA013100F0888096
:100710004FEA03334FF0805545EA131343EA12635F
:100720004FEA022245EA111545EA10654FEA002614
:100730000EF000419D4208BF964244F1FD0404F5CD
:10074000407402D25B084FEA3202B61A65EB030529
:100750005B084FEA32024FF480104FF4002CB6EBE6
:10076000020E75EB030E22BFB61A754640EA0C0066
:100770005B084FEA3202B6EB020E75EB030E22BFA6
:10078000B61A754640EA5C005B084FEA3202B6EBE7
:10079000020E75EB030E22BFB61A754640EA9C00A6
:1007A0005B084FEA3202B6EB020E75EB030E22BF76
:1007B000B61A754640EADC0055EA060E18D04FEA34
:1007C000051545EA16754FEA06164FEAC30343EAD4
:1007D00052734FEAC2025FEA1C1CC0D111F4801FA1
:1007E0000BD141EA00014FF000004FF0004CB6E79A
:1007F00011F4801F04BF01430020B4F1FD0C88BF39
:10080000BCF5E06F3FF6AFAEB5EB030C04BFB6EB43
:10081000020C5FEA500C50F1000041EB045170BD36
:100820000EF0004E4EEA113114EB5C04C2BFD4EB63
:100830000C0541EA045170BD41F480114FF0000EE7
:10084000013C90E645EA060E8DE60CEA135594EA63
:100850000C0F08BF95EA0C0F3FF43BAF94EA0C0F66
:100860000AD150EA01347FF434AF95EA0C0F7FF4DB
:1008700025AF104619462CE795EA0C0F06D152EA2F
:1008800003353FF4FDAE1046194622E750EA410613
:1008900018BF52EA43067FF4C5AE50EA41047FF424
:1008A0000DAF52EA43057FF4EBAE12E74FF0FF3C89
:1008B00006E000BF4FF0010C02E000BF4FF0010C5A
:1008C0004DF804CD4FEA410C7FEA6C5C4FEA430CD3
:1008D00018BF7FEA6C5C1BD001B050EA410C0CBF22
:1008E00052EA430C91EA030F02BF90EA020F002084
:1008F000704710F1000F91EA030F58BF994208BFEB
:1009000090422CBFD8176FEAE37040F001007047A7
:100910004FEA410C7FEA6C5C02D150EA013C07D1FE
:100920004FEA430C7FEA6C5CD6D152EA033CD3D049
:100930005DF8040B704700BF8446104662468C4643
:100940001946634600E000BF01B5FFF7B7FF002876
:1009500048BF10F1000F01BD4DF808EDFFF7F4FF9F
:100960000CBF012000205DF808FB00BF4DF808ED2A
:10097000FFF7EAFF34BF012000205DF808FB00BF4D
:100980004DF808EDFFF7E0FF94BF012000205DF86F
:1009900008FB00BF4DF808EDFFF7CEFF94BF012024
:1009A00000205DF808FB00BF4DF808EDFFF7C4FF1D
:1009B00034BF012000205DF808FB00BF4A0011D2BF
:1009C00012F5001211D20DD56FF47873B3EB6252A9
:1009D0000ED44FEAC12343F0004343EA505323FAB5
:1009E00002F070474FF00000704750EA013002D12A
:1009F0004FF0FF3070474FF00000704780F000402C
:100A000002E000BF81F0004142001FBF5FEA4103E6
:100A100092EA030F7FEA226C7FEA236C6AD04FEAE6
:100A20001262D2EB1363C1BFD2184140484041402B
:100A3000B8BF5B42192B88BF704710F0004F40F4DD
:100A4000000020F07F4018BF404211F0004F41F4F9
:100A5000000121F07F4118BF494292EA030F3FD0C5
:100A6000A2F1010241FA03FC10EB0C00C3F12003D8
:100A700001FA03F100F0004302D5494260EB400067
:100A8000B0F5000F13D3B0F1807F06D340084FEAD2
:100A9000310102F10102FE2A51D2B1F1004F40EBC7
:100AA000C25008BF20F0010040EA0300704749002F
:100AB00040EB0000013A28BFB0F5000FEDD2B0FACC
:100AC00080FCACF1080CB2EB0C0200FA0CF0AABFEF
:100AD00000EBC25052421843BCBFD040184370478D
:100AE00092F0000F81F4000106BF80F40000013293
:100AF000013BB5E74FEA41037FEA226C18BF7FEA6A
:100B0000236C21D092EA030F04D092F0000F08BFAB
:100B10000846704790EA010F1CBF0020704712F092
:100B20007F4F04D1400028BF40F00040704712F1D1
:100B300000723CBF00F50000704700F0004343F036
:100B4000FE4040F4000070477FEA226216BF08466C
:100B50007FEA23630146420206BF5FEA412390EA2F
:100B6000010F40F4800070474FF0000304E000BF25
:100B700010F0004348BF40425FEA000C08BF7047D6
:100B800043F0964301464FF000001CE050EA01029A
:100B900008BF70474FF000030AE000BF50EA0102AF
:100BA00008BF704711F0004302D5404261EB41019C
:100BB0005FEA010C02BF84460146002043F0B643C1
:100BC00008BFA3F18053A3F50003BCFA8CF2083AE6
:100BD000A3EBC25310DB01FA02FC634400FA02FCEF
:100BE000C2F12002BCF1004F20FA02F243EB0200F6
:100BF00008BF20F00100704702F1200201FA02FC58
:100C0000C2F1200250EA4C0021FA02F243EB02004A
:100C100008BF20EADC7070474FF0FF0C1CEAD0528E
:100C20001EBF1CEAD15392EA0C0F93EA0C0F6FD04F
:100C30001A4480EA010C400218BF5FEA41211ED02D
:100C40004FF0006343EA501043EA5111A0FB013119
:100C50000CF00040B1F5000F3EBF490041EAD371EE
:100C60005B0040EA010062F17F02FD2A1DD8B3F16A
:100C7000004F40EBC25008BF20F00100704790F0D9
:100C8000000F0CF0004C08BF49024CEA502040EA2B
:100C900051207F3AC2BFD2F1FF0340EAC2507047F1
:100CA00040F400004FF00003013A5DDC12F1190F2F
:100CB000DCBF00F000407047C2F10002410021FAA1
:100CC00002F1C2F1200200FA02FC5FEA310040F1B9
:100CD000000053EA4C0308BF20EADC70704792F032
:100CE000000F00F0004C02BF400010F4000F013A6A
:100CF000F9D040EA0C0093F0000F01F0004C02BF65
:100D0000490011F4000F013BF9D041EA0C018FE7D3
:100D10000CEAD15392EA0C0F18BF93EA0C0F0AD0D9
:100D200030F0004C18BF31F0004CD8D180EA0100FF
:100D300000F00040704790F0000F17BF90F0004F98
:100D4000084691F0000F91F0004F14D092EA0C0F7A
:100D500001D142020FD193EA0C0F03D14B0218BF0D
:100D6000084608D180EA010000F0004040F0FE4053
:100D700040F40000704740F0FE4040F440007047EF
:100D80004FF0FF0C1CEAD0521EBF1CEAD15392EA6E
:100D90000C0F93EA0C0F69D0A2EB030280EA010C5E
:100DA00049024FEA402037D04FF0805343EA1111F7
:100DB00043EA10130CF000408B4238BF5B0042F155
:100DC0007D024FF4000C8B4224BF5B1A40EA0C00FA
:100DD000B3EB510F24BFA3EB510340EA5C00B3EB2C
:100DE000910F24BFA3EB910340EA9C00B3EBD10F1A
:100DF00024BFA3EBD10340EADC001B0118BF5FEA6C
:100E00001C1CE0D1FD2A3FF650AF8B4240EBC25094
:100E100008BF20F0010070470CF0004C4CEA502055
:100E20007F32C2BFD2F1FF0340EAC250704740F4A4
:100E300000004FF00003013A37E792F0000F00F096
:100E4000004C02BF400010F4000F013AF9D040EA14
:100E50000C0093F0000F01F0004C02BF490011F4A8
:100E6000000F013BF9D041EA0C0195E70CEAD153A0
:100E700092EA0C0F08D142027FF47DAF93EA0C0F87
:100E80007FF470AF084676E793EA0C0F04D14B026B
:100E90003FF44CAF08466EE730F0004C18BF31F01D
:100EA000004CCAD130F000427FF45CAF31F0004317
:100EB0007FF43CAF5FE700BF844641EA000313F0D4
:100EC000030349D1403A23D30B6803604B68436066
:100ED0008B688360CB68C3600B6903614B694361B6
:100EE0008B698361CB69C3610B6A03624B6A43629E
:100EF0008B6A8362CB6AC3620B6B03634B6B436386
:100F00008B6B8363CB6BC36340304031403ADBD2A1
:100F100030320BD30B6803604B6843608B6883608F
:100F2000CB68C36010301031103AF3D20C3205D3C5
:100F300051F8043B40F8043B043AF9D2043208D09B
:100F4000D2071CBF11F8013B00F8013B01D30B880D
:100F500003806046704700BF082A13D38B07B1D0C7
:100F600010F00303AED0C3F10403D21ADB071CBF99
:100F700011F8013B00F8013BA4D331F8023B20F803
:100F8000023B9FE7043AD9D3013A11F8013B00F83C
:100F9000013BF9D20B7803704B7843708B788370E8
:100FA000604670474FEA410C7FEA6C5C02D150EA20
:100FB000013C0AD14FEA430C7FEA6C5C02D152EA51
:100FC000033C02D14FF0000070474FF00100704722
:100FD0004FEA410212F5001215D211D56FF4787361
:100FE000B3EB625212D94FEAC12343F0004343EA04
:100FF000505311F0004F23FA02F018BF40427047DF
:101000004FF00000704750EA013005D111F0004068
:1010100008BF6FF0004070474FF00000704700BFFE
:101020000348044B834202D0034B03B11847704777
:10103000C4060020C4060020000000000548064B3E
:101040001B1AD90F01EBA301491002D0034B03B1C6
:1010500018477047C4060020C406002000000000A6
:1010600010B5064C237843B9FFF7DAFF044B13B1F0
:101070000448AFF300800123237010BDC406002094
:101080000000000068A3000808B5054B1BB1054926
:101090000548AFF30080BDE80840FFF7CFBF00BFB1
:1010A00000000000C806002068A300082DE9F043F6
:1010B00089B000240494059406940794384B9A69E7
:1010C00042F020029A619A6902F020020192019A8C
:1010D0009A6942F004029A619A6902F0040202924B
:1010E000029A9A6942F008029A619B6903F0080328
:1010F0000393039B2B4E22464FF20131304600F002
:10110000E2FEDFF8A48001224FF40061404600F0C7
:10111000DAFE22464FF41041404600F0D4FE01258D
:101120000495059506940227079704A9304600F018
:10113000B5FD04970594069404A9304600F0AEFD71
:101140004FF470430493059506940327079704A969
:10115000304600F0A3FD4FF4006304934FF01109F3
:10116000CDF814900695079704A9404600F096FD27
:101170004FF41043049305950694079704A940463D
:1011800000F08CFD4FF440730493CDF81490069555
:10119000079704A9304600F081FD09B0BDE8F0834F
:1011A00000100240000C01400008014008B5026830
:1011B000064B9A4205D001220549064802F075F90E
:1011C00008BD034B187802F083F9F4E700380140BA
:1011D000E1060020B008002072B6FEE700B591B02D
:1011E0002822002106A802F079FF00230193029330
:1011F000039304930593012206924FF480330793DF
:101200000A9202220D920E934FF4E0130F9306A858
:1012100000F076FE80B90F23019302210291002392
:1012200003934FF480620492059301A801F09AF8A9
:1012300020B911B05DF804FBFFF7CEFFFFF7CCFF3C
:1012400008B500F00BFCFFF7C9FFFFF72FFF00F018
:1012500011FB00F08DF900F0BDF900F093FA00F0F9
:101260004FF900F0EDFA00F02DF801220F49104877
:1012700002F01BF93C210F4802F0EAFC02F0B6F93B
:101280000D4B01221A700D4802F0D8FEB421062041
:1012900002F0BEFC142000F005FC6E21072002F0D5
:1012A000B7FC02F021FA064B1860EFE7E1060020D8
:1012B000B008002000004842E006002080A300089B
:1012C000E406002008B50E480E4B03604FF482730D
:1012D000436000238360C360036143614FF4007285
:1012E00082611022C2610362436283620A23C36285
:1012F00001F014F900B908BDFFF76EFFFBE700BF6E
:10130000E80600200030014010B586B000230293AB
:1013100003930493059302681A4B9A4201D006B0D6
:1013200010BD03F560439A6942F480529A619A694C
:1013300002F480520092009A9A6942F008029A617F
:101340009B6903F008030193019B28230293022366
:101350000393032305930C4C02A9204600F09EFC46
:101360001023029300230393049302A9204600F064
:1013700095FC064A536843F0E06343F00103536071
:10138000CDE700BF00300140000C014000000140EB
:1013900082B00E4B9A6942F001029A619A6902F09A
:1013A00001020092009ADA6942F08052DA61DB6948
:1013B00003F080530193019B054A536823F0E063D7
:1013C00043F00073536002B0704700BF001002404A
:1013D00000000140FEE7FEE7FEE7FEE7FEE770479C
:1013E0007047704708B500F04BFB08BD10B50A4CBC
:1013F000204601F0ECF923681A6912F0010F0AD0B7
:10140000DA6812F0010F06D004490A7801320A7036
:101410006FF001021A6110BD200800204007002073
:1014200008B5024801F0E4FE08BD00BFB008002086
:1014300008B5024801F0DCFE08BD00BF68080020C6
:101440000120704708B502F0EDFE162303604FF04F
:10145000FF3008BD08B54FF0FF31FFF7F3FFFEE79F
:1014600070B50C461646002506E0AFF30080214615
:1014700001F8010B01350C46B542F6DB304670BD74
:1014800070B50C461646002504E014F8010B00F078
:1014900089FA0135B542F8DB304670BD4FF0FF30B8
:1014A00070474FF400534B60002070470120704795
:1014B0000020704710B503460C4A0D490D480068DE
:1014C00040B10C4800680344521A934206D8094AB6
:1014D000136010BD0748084C0460F2E702F0A2FE5A
:1014E0000C2303604FF0FF30F3E700BF00500020F3
:1014F0000004000044070020300C0020704700006A
:1015000000B587B0002302930393049305930093DF
:1015100001931548154A026047224260836042F2F7
:101520000F72C26003614361836101F041FA90B9B7
:101530004FF48053029302A90B4801F095FB68B960
:101540000023009301936946074801F00DFC40B960
:1015500007B05DF804FBFFF73FFEE9E7FFF73CFE4D
:10156000EEE7FFF739FEF3E720080020002C0140EA
:1015700000B58DB02422002103A802F0AFFD0023A6
:10158000019302931148124A0260436083604FF650
:10159000FF72C26003618361012303930593099382
:1015A00003A901F05DFA50B900230193029301A948
:1015B000064801F0D9FB28B90DB05DF804FBFFF730
:1015C0000BFEF1E7FFF708FEF6E700BF90070020EB
:1015D0000004004000B58DB02422002103A802F0D1
:1015E0007DFD0023019302931148124A026043607B
:1015F00083604FF6FF72C26003618361032303932C
:1016000001230593099303A901F02AFA50B9002395
:101610000193029301A9064801F0A6FB28B90DB079
:101620005DF804FBFFF7D8FDF1E7FFF7D5FDF6E71E
:10163000480700200008004000B583B00368144A42
:10164000934205D0B3F1804F15D003B05DF804FB91
:10165000104B9A6942F400629A619B6903F400633B
:101660000093009B00221146192000F075FA192002
:1016700000F082FAE9E703F50433DA6942F0010287
:10168000DA61DB6903F001030193019BDDE700BF31
:10169000002C01400010024000B589B000230493E3
:1016A00005930693079303681E4A934205D01E4A8A
:1016B00093421CD009B05DF804FB1C4BDA6942F080
:1016C0000202DA61DA6902F002020092009A9A6973
:1016D00042F004029A619B6903F004030193019BA9
:1016E000C023049304A9124800F0D8FAE2E70F4B94
:1016F000DA6942F00402DA61DA6902F00402029265
:10170000029A9A6942F008029A619B6903F0080301
:101710000393039BC023049304A9064800F0BEFA78
:10172000C8E700BF0004004000080040001002406D
:1017300000080140000C014000B587B0002302936F
:101740000393049305930368B3F1804F02D007B06D
:101750005DF804FB03F504339A6942F004029A61D0
:101760009B6903F004030193019B0C230293022362
:101770000393059302A9024800F090FAE7E700BF3F
:101780000008014000B58FB000230A930B930C931F
:101790000D93089309930193029303930493059384
:1017A0000693079325484FF08042026043608360B0
:1017B00041F61F42C2600361836101F0F9F858BB32
:1017C0004FF480530A930AA91C4801F04DFA30BB2C
:1017D0001A4801F019F928BB00230893099308A9B6
:1017E000164801F0C1FA00BB602301930023029365
:1017F00003930593082201A9104801F0BBF9B8B979
:101800000C2201A90D4801F0B5F9A0B90B48FFF76A
:1018100093FF0FB05DF804FBFFF7DEFCD0E7FFF7A6
:10182000DBFCD5E7FFF7D8FCD6E7FFF7D5FCDBE715
:10183000FFF7D2FCE4E7FFF7CFFCE7E7D80700208B
:1018400008B50A480A4B03604FF4E13343600023B4
:101850008360C36003610C2242618361C36101F054
:10186000A6FB00B908BDFFF7B7FCFBE7B0080020F6
:101870000038014008B50A480A4B03604FF4E133D1
:10188000436000238360C36003610C224261836173
:10189000C36101F08CFB00B908BDFFF79DFCFBE7BD
:1018A000680800200048004030B589B00023049348
:1018B0000593069307930368354A934204D0354A4B
:1018C000934233D009B030BD334B9A6942F4804221
:1018D0009A619A6902F480420092009A9A6942F0F1
:1018E00004029A619B6903F004030193019B4FF486
:1018F000007304930223059303230793274D04A940
:10190000284600F0CBF94FF480630493002405943B
:10191000069404A9284600F0C1F922462146252054
:1019200000F01AF9252000F027F9CBE71A4BDA6905
:1019300042F48022DA61DA6902F480220292029A89
:101940009A6942F008029A619B6903F008030393C5
:10195000039B4FF4806304930223059303230793AF
:101960000F4D04A9284600F099F94FF40063049341
:1019700000240594069404A9284600F08FF9224615
:101980002146272000F0E8F8272000F0F5F899E735
:1019900000380140004800400010024000080140AB
:1019A000000C014000B583B001904FF0FF330122DD
:1019B00001A9034801F02BFB019803B05DF804FB7B
:1019C00068080020FFF79AFD0B480C490C4A0023D9
:1019D00002E0D458C4500433C4188C42F9D3094AE5
:1019E000094C002301E013600432A242FBD302F051
:1019F0001FFCFFF725FC704700000020C4060020F4
:101A000000A80008C40600202C0C0020FEE70000FF
:101A100010B504460E4B1A784FF47A73B3FBF2F309
:101A20000C4A1068B0FBF3F000F0B4F868B90F2C62
:101A300001D901200AE0002221464FF0FF3000F0DA
:101A40008BF8054B1C60002000E0012010BD00BF9A
:101A500004000020000000200800002008B5074A0C
:101A6000136843F010031360032000F063F80F20A5
:101A7000FFF7CEFFFFF78CFC002008BD00200240DE
:101A8000034A1168034B1B780B441360704700BF77
:101A9000F808002004000020014B1868704700BFC0
:101AA000F808002038B50446FFF7F6FF0546B4F104
:101AB000FF3F02D0044B1B781C44FFF7EDFF401B97
:101AC000A042FAD338BD00BF04000020002808DB84
:101AD0000901C9B200F1604000F5614080F80013CF
:101AE000704700F00F000901C9B2014B195470474B
:101AF00014ED00E000B500F00700C0F1070CBCF1E8
:101B0000040F28BF4FF0040C031D062B0FD9C31E72
:101B10004FF0FF3E0EFA0CF021EA000199400EFA58
:101B200003FE22EA0E0241EA02005DF804FB0023F4
:101B3000EEE70000074AD36823F4E0631B041B0CA4
:101B4000000200F4E060034343F0BF6343F400335A
:101B5000D360704700ED00E010B50446054BD8682F
:101B6000C0F30220FFF7C6FF01462046FFF7AEFF95
:101B700010BD00BF00ED00E0002807DB00F01F02F1
:101B8000400901239340024A42F82030704700BFC9
:101B900000E100E00138B0F1807F0BD24FF0E0238C
:101BA0005861054AF02182F823100020986107222D
:101BB0001A6170470120704700ED00E0034690F87D
:101BC0002120D2B2022A06D004228263002280F8A9
:101BD00020200120704701680A6822F00E020A6086
:101BE00001680A6822F001020A60026CC06B0121E0
:101BF00001FA02F2426083F82110002083F82000ED
:101C00007047000008B590F82130DBB2022B03D0FA
:101C100004238363012008BD0268136823F00E03C8
:101C200013600268136823F0010313600368194A04
:101C3000934214D0143293421FD0143293421ED0D8
:101C4000143293421ED0143293421ED01432934267
:101C500002D04FF0807203E04FF4801200E00122C6
:101C60000D4B5A60012380F82130002380F820308A
:101C7000436B6BB198470020CDE71022F0E74FF49B
:101C80008072EDE74FF48052EAE74FF48032E7E7E5
:101C90000020C0E7080002400000024070B582B09A
:101CA0000024A446A1E07E4DAB4214D00CD8A5F58B
:101CB0008015AB420FD005F57025AB420BD0A5F5D2
:101CC0008015AB4210D106E0764DAB4203D005F54E
:101CD0008035AB4208D18B68002B50D0012B49D006
:101CE0004261082400E0CC68BEF1FF0F49D80646E7
:101CF0004FEA8C0233680F25954023EA050304FA66
:101D000002F2134333604B6813F0805F6BD0664B75
:101D10009A6942F001029A619B6903F00103019301
:101D2000019B4FEA9C02951C604B53F825600CF018
:101D30000305AD000F23AB4026EA03065C4B984237
:101D400026D003F58063984200F08C8003F5806311
:101D5000984200F0898003F58063984216D00423EE
:101D600017E0CC680434BFE7CC680834BCE7CC6823
:101D70000C34B9E702610824B6E70024B4E7042470
:101D8000B2E7061DACF108029200B3E7032300E0BE
:101D90000023AB4033430232444D45F822304B68B8
:101DA00013F4801F62D0434A936843EA0E039360A2
:101DB0004B6813F4001F5FD03E4AD36843EA0E031A
:101DC000D3604B6813F4003F5CD03A4A536843EA4F
:101DD0000E0353604B6813F4803F59D0354A1368A3
:101DE00043EA0E0313600CF1010C0B6833FA0CF29A
:101DF00054D0012202FA0CF203EA020E32EA030383
:101E0000F1D14B68122B3FF64EAF122B3FF66CAF61
:101E100001A555F823F000BFD71C0008E71C0008F7
:101E2000691D00087B1D0008E91C0008E91C00086A
:101E3000E91C0008E91C0008E91C0008E91C00086E
:101E4000E91C0008E91C0008E91C0008E91C00085E
:101E5000E91C0008E91C0008E91C0008631D0008D3
:101E60006F1D0008012394E7022392E7114A93684B
:101E700023EA0E0393609BE70E4AD36823EA0E031E
:101E8000D3609EE70B4A536823EA0E035360A1E731
:101E9000084A136823EA0E031360A4E702B070BD7A
:101EA000000022100000311000100240000001402C
:101EB00000080140000401408368194201D001205C
:101EC0007047002070470AB1016170470904016141
:101ED0007047000082B0084B1B68084AA2FB03232E
:101EE0005B0A00FB03F3019300BF019B5A1E0192A2
:101EF000002BF9D102B0704700000020D34D6210D2
:101F0000002800F0F18170B582B00446036813F038
:101F1000010F2CD0994B5B6803F00C03042B1DD0F0
:101F2000964B5B6803F00C03082B12D06368B3F583
:101F3000803F41D0002B55D103F1804303F504339A
:101F40001A6822F480321A601A6822F480221A6019
:101F500037E08A4B5B6813F4803FE7D0874B1B6800
:101F600013F4003F03D06368002B00F0BF812368A7
:101F700013F0020F75D0814B5B6813F00C0F5FD02C
:101F80007E4B5B6803F00C03082B54D02369002BB5
:101F900000F08A807A4B01221A60FFF77DFD05462A
:101FA000764B1B6813F0020F75D1FFF775FD401BD0
:101FB0000228F5D903209EE1704A136843F4803368
:101FC0001360636843B3FFF767FD05466B4B1B68FF
:101FD00013F4003FCBD1FFF75FFD401B6428F5D918
:101FE000032088E1B3F5A02F09D0644B1A6822F4CE
:101FF00080321A601A6822F480221A60E1E703F145
:102000008043A3F53C331A6842F480221A601A68B0
:1020100042F480321A60D4E7FFF73EFD0546574B85
:102020001B6813F4003FA2D0FFF736FD401B642865
:10203000F5D903205FE1514B5B6813F4803FA5D1D4
:102040004E4B1B6813F0020F03D02369012B40F0A5
:102050004F814A4A136823F0F803616943EAC103D8
:102060001360236813F0080F33D0A369002B5CD0F2
:10207000434B0122C3F88024FFF70EFD05463F4B7A
:102080005B6A13F0020F21D1FFF706FD401B022807
:10209000F5D903202FE1394A136823F0F803616969
:1020A00043EAC1031360DCE7354B00221A60FFF7F7
:1020B000F3FC0546314B1B6813F0020FD1D0FFF73C
:1020C000EBFC401B0228F5D9032014E10120FFF7A7
:1020D00001FF236813F0040F00F09680274BDB69A3
:1020E00013F0805F34D1254BDA6942F08052DA6117
:1020F000DB6903F080530193019B0125214B1B6891
:1021000013F4807F26D0E368012B3DD0002B53D100
:1021100003F1804303F504331A6A22F001021A62C4
:102120001A6A22F004021A6233E0154B0022C3F847
:102130008024FFF7B1FC0546104B5B6A13F0020FD9
:10214000C7D0FFF7A9FC401B0228F5D90320D2E035
:102150000025D3E70B4A136843F480731360FFF73D
:102160009BFC0646074B1B6813F4807FCBD1FFF71F
:1021700093FC801B6428F5D90320BCE000100240CA
:1021800000004242007000405F4A136A43F00103BE
:102190001362E36833B3FFF77FFC06465A4B1B6AB2
:1021A00013F0020F2FD1FFF777FC801B41F2883329
:1021B0009842F3D903209EE0052B09D0524B1A6AAE
:1021C00022F001021A621A6A22F004021A62E0E79F
:1021D0004D4B1A6A42F004021A621A6A42F0010276
:1021E0001A62D6E7FFF758FC0646474B1B6A13F006
:1021F000020F08D0FFF750FC801B41F28833984251
:10220000F3D9032077E0E5B9E369002B72D03E4AA9
:10221000526802F00C02082A56D0022B17D03B4B12
:1022200000221A66FFF738FC0446374B1B6813F090
:10223000007F47D0FFF730FC001B0228F5D90320B0
:1022400059E0314AD36923F08053D361DCE72F4B47
:1022500000221A66FFF720FC05462B4B1B6813F083
:10226000007F06D0FFF718FC401B0228F5D9032099
:1022700041E0236AB3F5803F1AD023494B6823F429
:102280007413226A606A024313434B601F4B01229E
:102290001A66FFF701FC04461B4B1B6813F0007F16
:1022A0000ED1FFF7F9FB001B0228F5D9032022E02D
:1022B000154A536823F40033A1680B435360DCE7ED
:1022C000002018E0002016E0012B16D00E4B5B68B2
:1022D00003F48031226A914211D103F47013626ACF
:1022E00093420ED1002006E001207047012002E059
:1022F000012000E0002002B070BD0120FBE70120BA
:10230000F9E70120F7E700BF001002400000424259
:102310000F4B5B6803F00C02082A01D00D48704790
:10232000C3F383420C49885C13F4803F0BD0084B05
:102330005B68C3F34043094AD35C064A02FB00F0E2
:10234000B0FBF3F07047064B03FB00F0704700BF93
:102350000010024000127A0098A5000894A5000819
:1023600000093D00002800F0A08070B50D4604462D
:10237000524B1B6803F007038B420BD24F4A136882
:1023800023F007030B431360136803F007038B422A
:1023900040F08D80236813F0020F17D013F0040F64
:1023A00004D0474A536843F4E0635360236813F052
:1023B000080F04D0424A536843F460535360404AC4
:1023C000536823F0F003A1680B435360236813F0B4
:1023D000010F31D06368012B20D0022B25D0384A61
:1023E000126812F0020F64D035494A6822F00302E5
:1023F00013434B60FFF750FB0646314B5B6803F01D
:102400000C036268B3EB820F16D0FFF745FB801B0D
:1024100041F288339842F0D9032045E0284A1268F7
:1024200012F4003FE0D101203EE0254A126812F08C
:10243000007FD9D1012037E0204B1B6803F0070350
:10244000AB420AD91D4A136823F007032B431360DC
:10245000136803F00703AB422DD1236813F0040F78
:1024600006D0174A536823F4E063E1680B435360D6
:10247000236813F0080F07D0114A536823F4605300
:10248000216943EAC1035360FFF742FF0C4B5B68CD
:10249000C3F303130B4AD35CD8400B4B18600B4BB0
:1024A0001868FFF7B5FA002070BD012070470120C1
:1024B000FAE70120F8E70120F6E700BF002002401C
:1024C0000010024084A50008000000200800002041
:1024D000014B1868704700BF0000002008B5FFF7E7
:1024E000F7FF044B5B68C3F30223034AD35CD84075
:1024F00008BD00BF001002407CA5000808B5FFF72A
:10250000E7FF044B5B68C3F3C223034AD35CD840A4
:1025100008BD00BF001002407CA50008002856D06E
:1025200010B50446436A33B94368B3F5827F05D0DA
:102530000023C36102E00023036143610023A3621F
:1025400094F85130002B3CD0022384F8513022689B
:10255000136823F040031360636803F48273A26876
:1025600002F404421343E26802F400621343226956
:1025700002F002021343626902F001021343A269EE
:1025800002F400721343E26902F038021343226A34
:1025900002F080021343A26A02F40052216813433E
:1025A0000B60638B226803F0040353602268D369D5
:1025B00023F40063D36100206065012384F8513067
:1025C00010BD84F850302046FEF79EFEBCE7012087
:1025D0007047000030B4026A036A23F0010303620B
:1025E0004568836923F073030C681C4322F00202E0
:1025F0008B6813430B4A904206D0456084614A6859
:102600004263036230BC704723F00803CA681A4370
:1026100022F0040325F440754A692A438D69154365
:10262000EBE700BF002C014030B4036A026A22F4D9
:10263000807202624468C26922F073020D68154319
:1026400023F400738A6843EA02230D4A904206D0BD
:102650004460C5614A68C263036230BC704723F4BA
:102660000063CA6843EA022323F4806324F44054DD
:102670004A6944EA02148A6944EA0214E8E700BF9E
:10268000002C014030B4036A026A22F480520262D4
:102690004468C26922F4E6420D6842EA052223F446
:1026A00000538D6843EA0533074DA84206D04460C5
:1026B000C2614A680264036230BC704724F48044FB
:1026C0004D6944EA8514F2E7002C014010B4036A16
:1026D000046A24F001040462846924F0F00C4CEADA
:1026E000021223F00A030B438261036210BC70479D
:1026F00010B4036A046A24F010040462846924F4A8
:10270000704C4CEA023223F0A00343EA01138261C9
:10271000036210BC7047836823F070030B4343F0DF
:10272000070383607047000090F83D30DBB2012B57
:1027300027D1022380F83D300268D36843F00103BB
:10274000D3600368114A934210D0B3F1804F0DD08B
:10275000A2F59432934209D002F58062934205D0EB
:102760001A6842F001021A60002070479A6802F06D
:102770000702062A07D01A6842F001021A600020F8
:102780007047012070470020704700BF002C0140B7
:102790000268D36823F00103D3600368196A41F229
:1027A0001112114208D1196A40F24442114203D178
:1027B0001A6822F001021A60012380F83D300020DF
:1027C000704770477047704770477047704770B5E3
:1027D00004460368DE681D6915F0020F10D016F07C
:1027E000020F0DD06FF002021A6101230377036814
:1027F0009B6913F0030F5ED0FFF7E6FF00232377FA
:1028000015F0040F12D016F0040F0FD023686FF0EC
:1028100004021A610223237723689B6913F4407F23
:102820004FD02046FFF7D0FF0023237715F0080F85
:1028300012D016F0080F0FD023686FF008021A614B
:10284000042323772368DB6913F0030F40D020466D
:10285000FFF7BAFF0023237715F0100F12D016F000
:10286000100F0FD023686FF010021A61082323772E
:102870002368DB6913F4407F31D02046FFF7A4FFC3
:102880000023237715F0010F02D016F0010F2DD190
:1028900015F0800F02D016F0800F2FD115F0400FE9
:1028A00002D016F0400F31D115F0200F02D016F0F3
:1028B000200F33D170BDFFF786FF2046FFF785FF5D
:1028C0009CE72046FFF77FFF2046FFF77EFFABE740
:1028D0002046FFF778FF2046FFF777FFBAE720464C
:1028E000FFF771FF2046FFF770FFC9E723686FF01D
:1028F00001021A612046FFF765FFC9E723686FF000
:1029000080021A61204600F066FAC7E723686FF07C
:1029100040021A612046FFF759FFC5E723686FF0B0
:1029200020021A61204600F055FAC3E703681F4AE7
:1029300090420AD0B0F1804F07D0A2F59432904275
:1029400003D002F58062904203D123F070034A68FD
:102950001343164A90420AD0B0F1804F07D0A2F537
:102960009432904203D002F58062904203D123F466
:102970004073CA68134323F080034A69134303601A
:102980008B68C3620B688362084B98420AD00123AC
:102990004361036913F0010F03D0036923F00103BE
:1029A000036170470B690363F1E700BF002C01402E
:1029B00040B310B5044690F83D30F3B1022384F8DB
:1029C0003D30214651F8040BFFF7B0FF012384F896
:1029D000463084F83E3084F83F3084F8403084F844
:1029E000413084F8423084F8433084F8443084F82D
:1029F000453084F83D30002010BD80F83C30FEF7B3
:102A00001BFEDBE70120704740B310B5044690F889
:102A10003D30F3B1022384F83D30214651F8040BD8
:102A2000FFF784FF012384F8463084F83E3084F8B1
:102A30003F3084F8403084F8413084F8423084F8E4
:102A4000433084F8443084F8453084F83D30002029
:102A500010BD80F83C30FFF7B4FEDBE70120704783
:102A6000002856D070B50D46044690F83D30002B36
:102A70004AD0022384F83D302268936823F48043CF
:102A800023F007039360214651F8040BFFF74EFF34
:102A900021688B688A690E6A2868184322F440729C
:102AA00022F00302AB68D5F818C043EA0C231343A5
:102AB00023F47C4323F0FC03EA68D5F81CC042EA07
:102AC0000C221A432B6A1B03D5F810C043EA0C13DF
:102AD000134326F022066A686D6942EA0512324302
:102AE000886021688B6123681A62012384F846306C
:102AF00084F83E3084F83F3084F8423084F8433024
:102B000084F83D30002070BD80F83C30FEF7C4FDF5
:102B1000AFE701207047000030B4036A026A22F078
:102B2000100202624468826922F4E6420D6842EAB9
:102B3000052223F020038D6843EA05130C4DA842BB
:102B400006D0446082614A688263036230BC704789
:102B500023F08003CD6843EA051323F0400324F4F7
:102B600040644D6944EA85048D6944EA8504E8E7D8
:102B7000002C014038B590F83C30012B66D004465B
:102B80000D46012380F83C300C2A5AD8DFE802F0C9
:102B9000075959591B595959305959594400006816
:102BA000FFF718FD2268936943F0080393612268D8
:102BB000936923F0040393612268936929690B43A5
:102BC000936100203EE00068FFF7A6FF226893694A
:102BD00043F4006393612268936923F480639361F3
:102BE00022689369296943EA01239361002029E05F
:102BF0000068FFF719FD2268D36943F00803D36129
:102C00002268D36923F00403D3612268D369296958
:102C10000B43D361002015E00068FFF733FD226805
:102C2000D36943F40063D3612268D36923F48063DA
:102C3000D3612268D369296943EA0123D361002063
:102C400000E00120002384F83C3038BD0220FCE77E
:102C500010B4846824F47F4C42EA03220A4342EA17
:102C60000C02826010BC704790F83C30012B78D089
:102C700010B50446012380F83C30022380F83D3033
:102C80000268936823F47F4323F0770393600B6813
:102C9000602B4CD023D8402B54D011D8202B03D0FC
:102CA0000AD80BB1102B05D119462068FFF733FD68
:102CB000002028E0012026E0302BF5D0012022E082
:102CC000502B0AD1CA6849680068FFF7FFFC502101
:102CD0002068FFF720FD002015E0012013E0B3F588
:102CE000805F3AD0B3F5005F14D0702B37D1CB683A
:102CF0004A6889680068FFF7ABFF2268936843F071
:102D0000770393600020012384F83D30002384F88A
:102D10003C3010BDCB684A6889680068FFF798FFAF
:102D20002268936843F4804393600020EBE7CA680D
:102D300049680068FFF7DCFC60212068FFF7EBFCC6
:102D40000020E0E7CA6849680068FFF7BFFC40213F
:102D50002068FFF7E0FC0020D5E70020D3E7012042
:102D6000D1E702207047000090F83C20012A2CD0C7
:102D700010B40346012280F83C20022280F83D2056
:102D800002685068946820F0700C086840EA0C00F3
:102D900050601A680E4882420AD0B2F1804F07D0C4
:102DA000A0F59430824203D000F58060824204D1C5
:102DB00024F08004496821439160012283F83D207A
:102DC000002083F83C0010BC70470220704700BF11
:102DD000002C014070477047026802F10C0353E871
:102DE000003F23F490730C3242E800310029F3D104
:102DF000026802F1140353E8003F23F00103143288
:102E000042E800310029F3D1036B012B05D02023C8
:102E100080F84230002303637047026802F10C031C
:102E200053E8003F23F010030C3242E80031002940
:102E3000F3D1ECE790F84130DBB2212B01D0022036
:102E400070478368B3F5805F17D0036A5A1C02622B
:102E50001A7803685A60C38C9BB2013B9BB2C3844F
:102E60004BB90268D36823F08003D3600268D3684B
:102E700043F04003D360002070470369002BE4D186
:102E8000036A1B880268C3F308035360036A0233B2
:102E90000362E0E710B504460268136923F4405367
:102EA000C1680B43136183680269134342691A4383
:102EB0000168CB6823F4B05323F00C031343CB60B9
:102EC0000268536923F4407381690B4353610268BC
:102ED000134B9A4220D0FFF701FB024602EB82021D
:102EE00002EB820263689B00B2FBF3F20D48A0FB89
:102EF00002314909642303FB11231B013233A0FB78
:102F000003035B0903F0F00202EB011203F00F036D
:102F1000216813448B6010BDFFF7F0FA0246DDE72D
:102F2000003801401F85EB512DE9F04383B0054681
:102F30000E4617469946DDF828802B681C6836EA4D
:102F400004040CBF01240024BC4228D1B8F1FF3F87
:102F5000F3D0FEF7A1FDA0EB0900404523D8B8F15E
:102F6000000F22D02B68DA6812F0040FE5D0802E13
:102F7000E3D0402EE1D01A6812F0080FDDD0002413
:102F800001941A6801925B680193019B2846FFF740
:102F900023FF08236B6485F84040012000E00020F7
:102FA00003B0BDE8F0830320FAE70320F8E760B33D
:102FB00010B5044690F8413013B3242384F841300F
:102FC0002268D36823F40053D3602046FFF762FFE2
:102FD0002268136923F4904313612268536923F034
:102FE0002A0353612268D36843F40053D36000205E
:102FF0006064202384F8413084F84230606310BD5F
:1030000080F84030FEF750FCD7E7012070472DE9EB
:10301000F04182B01E4690F84130DBB2202B56D1F1
:1030200004460D469046002955D00AB901204FE0CC
:1030300000234364212380F84130FEF72DFD07462D
:10304000A4F82480A4F82680A368B3F5805F02D09A
:103050004FF0000814E023692BB34FF000080FE095
:10306000202384F84130032032E038F8023B226804
:10307000C3F308035360E28C92B2013A92B2E28445
:10308000E38C9BB293B100963B4600228021204600
:10309000FFF74AFF0028E3D1002DE6D015F8012BF9
:1030A00023685A60E7E7A8460025E9E700963B4613
:1030B000002240212046FFF737FF18B9202384F86B
:1030C000413005E0202384F84130032000E0022055
:1030D00002B0BDE8F0810120FAE7704708B5016849
:1030E000CA6822F04002CA60202280F84120FFF71F
:1030F000F4FF002008BD704708B5406A0023C3856F
:10310000C384FFF7F8FF08BD704790F84230DBB288
:10311000222B69D18368B3F5805F4FD0826AB3F503
:10312000805F04D0002B56D10369002B53D1036874
:103130005B681370836A01338362C38D9BB2013B6A
:103140009BB2C385002B51D100B583B00268D36810
:1031500023F02003D3600268D36823F48073D36024
:103160000268536923F001035361202380F8423041
:1031700000234363036B012B33D1002303630268F5
:1031800002F10C0353E8003F23F010030C3242E835
:1031900000310029F3D103681A6812F0100F06D02D
:1031A000002201921A6801925B680193019B818D54
:1031B000FFF7AAFF002003B05DF804FB0269002AB4
:1031C000ACD1826A03685B68C3F308031380836A27
:1031D00002338362B1E703685B6803F07F03137017
:1031E000A8E7FDF7E3FFE5E70220704700207047FE
:1031F00010B582B0044602681368D068516913F0B4
:103200000F0F09D113F0200F0CD010F0200F09D0B0
:103210002046FFF77AFF16E011F0010115D110F4F6
:10322000907F12D1216B012979D013F0800F03D048
:1032300010F0800F40F0138113F0400F03D010F016
:10324000400F40F0108102B010BD13F0010F06D006
:1032500010F4807F03D0626C42F00102626413F0CC
:10326000040F04D019B1626C42F00202626413F0E0
:10327000020F04D019B1626C42F00402626413F0D0
:10328000080F07D010F0200F00D119B1626C42F086
:1032900008026264626C002AD5D013F0200F02D0BD
:1032A00010F0200F29D123685B6903F04003626CA2
:1032B00012F0080F00D163B32046FFF78DFD23689D
:1032C0005B6913F0400F20D0226802F1140353E829
:1032D000003F23F04003143242E800310029F3D1CB
:1032E000E36B73B1624A5A63E06BFEF78BFC002814
:1032F000A9D0E06B436B9847A5E72046FFF705FF91
:10330000D1E72046FFF7F7FE9DE72046FFF7F3FEE3
:1033100099E72046FFF7EFFE0023636493E713F07D
:10332000100F82D010F0100F3FF47FAF00230193F5
:103330001368019353680193019B536913F0400F85
:1033400051D0E26B13685B689BB2002B3FF47BAFFC
:10335000A18D99427FF677AFE3859369202B37D013
:10336000226802F10C0353E8003F23F480730C320F
:1033700042E800310029F3D1226802F1140353E836
:10338000003F23F00103143242E800310029F3D159
:10339000226802F1140353E8003F23F04003143283
:1033A00042E800310029F3D1202384F84230002381
:1033B0002363226802F10C0353E8003F23F010035B
:1033C0000C3242E800310029F3D1E06BFEF7F6FB46
:1033D00002236363A18DE38D9BB2C91A89B2204693
:1033E000FFF792FE2FE7A18DE38D9BB2C91A89B238
:1033F000E38D9BB2002B3FF426AF00293FF423AFAF
:10340000226802F10C0353E8003F23F490730C325E
:1034100042E800300028F3D1226802F1140353E897
:10342000003F23F00103143242E800300028F3D1BA
:10343000202384F8423000232363226802F10C0326
:1034400053E8003F23F010030C3242E8003000281C
:10345000F3D1022363632046FFF756FEF3E62046CE
:10346000FFF7E8FCEFE62046FFF738FEEBE600BF8B
:10347000F930000881628285C285002343642223DB
:1034800080F84230036923B10268D36843F4807343
:10349000D3600268536943F0010353610268D36843
:1034A00043F02003D3600020704708B590F8423005
:1034B000DBB2202B08D149B10AB9012008BD002395
:1034C0000363FFF7D7FFF9E70220F7E70120F5E7ED
:1034D00038B53D4B1B780BB92C280BD0012B14D0E1
:1034E000022B1FD0032B48D00023374A1370374AD2
:1034F000137065E0344B01221A70344A1378591C5A
:103500001170334A22F813005CE01228E8D12E4BE8
:1035100002221A702D4A1378591C11702C4A22F875
:1035200013004FE029490A78531CDBB20B7028497D
:1035300021F81200052B01D8FF2843D1224A03218C
:103540001170191F224A12F8111022480170D81E5A
:1035500032F81000204D2870023B32F813301F4C17
:1035600023701F4800F00AFD29781E4800F006FD70
:1035700021781D4800F002FD24E0144B1B78013B2C
:10358000134A32F813305B2B05D000230E4A137018
:103590000E4A13700BE000230C4A13700A4A137092
:1035A00010E00B4A002122F813100133DBB2092B83
:1035B000F7D907E0064A002122F813100133DBB2E5
:1035C000092BF7D938BD00BF1109002010090020D0
:1035D000FC08002012090020140900201309002013
:1035E00098A30008A8A30008BCA3000870B586B083
:1035F000234B9A6942F008029A619A6902F0080224
:103600000092009A9A6942F400629A619B6903F4FD
:1036100000630193019B0024029403940494059495
:1036200001250295039503230593164E02A9304602
:10363000FEF734FB224629463046FEF744FC0223BF
:1036400002930394049502A93046FEF727FB0E4D22
:103650000E4B2B6047236B60AC6042F20F73EB6044
:103660002C616C612846FFF7A3F92B685C626FF050
:1036700001021A612846FFF757F806B070BD00BF77
:1036800000100240000C014020080020002C0140E6
:1036900008B50448026800235362034A1370FFF719
:1036A00043F808BD200800204007002010B5084B53
:1036B0001A78084B1B685C6A4FF47A7101FB02446C
:1036C00000225A620A20FEF7EDF9204610BD00BF25
:1036D000400700202008002008B50248FFF758F8EE
:1036E00008BD00BF2008002070B5002500242AE096
:1036F000194E012211463046FEF7E5FB142000F07A
:103700001FFB002201213046FEF7DDFB022112489B
:10371000FEF7D2FB0028F9D0FFF7BAFF01350221EE
:103720000D48FEF7C9FB0128F9D0FFF7D5FFFFF7D9
:10373000BDFFFDF719FA0949FDF722FB01462046B6
:10374000FDF762F904460A2DD2D105492046FDF75E
:1037500017FB044B186070BD000C0140000068426C
:1037600000002041E406002070B586B000220292DD
:10377000039204920592124B996941F008019961F4
:103780009B6903F008030193019B0E4C4FF44071B9
:103790002046FEF798FB4FF44075029511230393E2
:1037A000012604960323059302A92046FEF776FA24
:1037B000324629462046FEF786FB06B070BD00BFA4
:1037C00000100240000C014070B584B04FF4007648
:1037D0000096112301930025029503230393144CB3
:1037E00069462046FEF75AFA012231462046FEF786
:1037F0006AFB052000F0A4FA01224FF480712046F4
:10380000FEF761FB052000F09BFA2A463146204670
:10381000FEF759FB052000F093FA2A464FF4807119
:103820002046FEF750FB052000F08AFA04B070BD78
:10383000000C014070B584B04FF400750095112361
:1038400001930026029603230393114C69462046F8
:10385000FEF724FA32464FF480712046FEF733FB20
:10386000324629462046FEF72EFB01224FF4807196
:103870002046FEF728FB052000F062FA01222946C7
:103880002046FEF720FB052000F05AFA04B070BD78
:10389000000C0140F0B585B004464FF40077009766
:1038A0001123019300260296032303931B4D6946BF
:1038B0002846FEF7F3F932464FF480712846FEF7AA
:1038C00002FB324639462846FEF7FDFA052000F095
:1038D00037FAE4B9324639462846FEF7F4FA0F4C77
:1038E00001224FF480712046FEF7EDFA052000F02A
:1038F00027FA00224FF480712046FEF7E4FA0122F5
:103900004FF400712046FEF7DEFA05B0F0BD01224B
:103910004FF400710148FEF7D6FAE0E7000C0140D1
:1039200030B585B0274C00224FF480712046FEF759
:10393000CAFA01224FF400712046FEF7C4FA4FF490
:1039400000730093002301930125029569462046E8
:10395000FEF7A4F9052000F0F3F92A464FF4807130
:103960002046FEF7B0FA052000F0EAF90A2404E048
:10397000013CE4B2052000F0E3F94FF40071114876
:10398000FEF79AFA012801D1002CF1D1B4B10D4D06
:1039900000224FF480712846FEF795FA4FF4007329
:1039A0000093112301930024029403230393694697
:1039B0002846FEF773F9204605B030BDFFF73AFF01
:1039C0000120F9E7000C014070B584B004464FF4C3
:1039D000007300931123019300260296032303939F
:1039E000174D69462846FEF759F932464FF4807163
:1039F0002846FEF768FA1EE0114DE2094FF4007107
:103A00002846FEF760FA012000F09AF901224FF4EF
:103A100080712846FEF757FA052000F091F9002240
:103A20004FF480712846FEF74EFA052000F088F921
:103A30006400E4B20136072EDEDD04B070BD00BFC5
:103A4000000C014070B584B04FF400730093002463
:103A500001940123029369461948FEF71FF9254690
:103A600004E0052000F06CF90134E4B2072C1ED804
:103A7000134E00224FF480713046FEF724FA0520E1
:103A800000F05EF901224FF480713046FEF71BFA18
:103A9000052000F055F96D00EDB24FF4007130468D
:103AA000FEF70AFA0028DCD045F00105D9E700222C
:103AB0004FF480710248FEF706FA284604B070BD44
:103AC000000C014038B505460C46FFF77DFE80200E
:103AD000FFF77AFFFFF724FF2846FFF775FFFFF790
:103AE0001FFF2046FFF770FFFFF71AFFFFF7A2FE48
:103AF00038BD10B50446FFF767FE8020FFF764FF6E
:103B0000FFF70EFF2046FFF75FFFFFF709FFFFF704
:103B100091FE0A2000F014F9FFF756FE8120FFF70E
:103B200053FFFFF7FDFEFFF78DFF04460120FFF76F
:103B3000B1FEFFF77FFE204610BD70B504460E466D
:103B40001546FFF741FE8020FFF73EFFFFF7E8FE36
:103B5000A000063000F0FE00FFF736FFFFF7E0FEA2
:103B6000F0B2FFF731FFFFF7DBFEC6F30720FFF7E8
:103B70002BFFFFF7D5FEE8B2FFF726FFFFF7D0FED9
:103B8000C5F30720FFF720FFFFF7CAFEFFF752FE3D
:103B900070BD00000000000038B5FCF71DFC0246B7
:103BA0000B4617A1D1E90001FCF798FD0022164B46
:103BB000FCF7B2FA0022154BFCF7B0FA06F050FB06
:103BC000FCF7FCFEC5B20020FFF793FF044600F0AF
:103BD0006F0141F010010020FFF774FF2946FE201D
:103BE000FFF770FF21460020FFF76CFF0520FDF76F
:103BF00059FF64F05E01C9B20020FFF763FF38BDD2
:103C00000000000084D7B7400000F03F0000E03F14
:103C100010B504460846FCF7CDFB09A3D3E9002301
:103C2000FCF732FC08A3D3E90023FCF777FAFCF792
:103C3000C5FE024600212046FFF77FFF10BD00BFF2
:103C40009A999999999901400000000000C0634039
:103C500038B505460C46FFF787FD00210846FFF7FB
:103C600031FF2846FFF798FF2046FCF7A3FB30A35F
:103C7000D3E90023FCF708FC2FA3D3E90023FCF7CA
:103C80004DFAFCF79BFE0446024600210846FFF76A
:103C900054FF224600210120FFF74FFF224600215A
:103CA0000220FFF74AFF224600210320FFF745FFCD
:103CB000224600210420FFF740FF22460021052074
:103CC000FFF73BFF224600210620FFF736FF224682
:103CD00000210720FFF731FF224600210820FFF7CF
:103CE0002CFF224600210920FFF727FF2246002152
:103CF0000A20FFF722FF224600210B20FFF71DFFBD
:103D0000224600210C20FFF718FF224600210D203B
:103D1000FFF713FF224600210E20FFF70EFF224679
:103D200000210F20FFF709FF6420FDF7BBFE38BD1F
:103D3000333333333333034000000000002062404C
:103D400082B0019010E04FF4617014E001F58C3105
:103D500001F5A0714FF0E0239B699A42FADA99428B
:103D6000F8DB019B1B1A0193019BABB1019BB3F5DF
:103D7000617FE8D801984FF0E0239A696FF047011E
:103D800001FB00210029E1DB4FF0E0239B699A420F
:103D9000E7DD9942F8DDE4E702B07047024A0349E3
:103DA000034800F0C9B800BF0C000020A17800084B
:103DB000200000200C4B416810B59942044601D008
:103DC00003F06EFDA168094B994202D0204603F032
:103DD00067FDE168064B994204D02046BDE81040DB
:103DE00003F05EBD10BD00BF18090020800900204F
:103DF000E80900202DE9F84300250423304C314A1E
:103E00003149DFF8C890DFF8C880324F324E116078
:103E100004F15C0029460822C4E90335C4E90055D1
:103E2000C4E90555A560656600F058F904F158002D
:103E3000C4E90749C4E90987E66200F021FA274B83
:103E40002946082204F1C4006367C4E91A55C4E98D
:103E50001E552567C4F8CC50C4F8805000F03EF9D8
:103E600004F1680304F1C000C4F88430C4E9229866
:103E7000C4E9247600F004FA194B294604F596703B
:103E80000822C4F8DC30C4E93455C4E93855C4F814
:103E9000D850C4F83451C4F8E85000F01FF904F1C8
:103EA000D003C4E93D87C4F8F09004F59470C4F8D9
:103EB000FC60C4F8EC30BDE8F84300F0E1B900BFA5
:103EC00018090020500A00209D3D00084D400008C0
:103ED00071400008B1400008D54000080900010009
:103EE0001200020010B504460A4800F0CDF9636BD9
:103EF00023B9094B094A1B68626323B1BDE810402E
:103F0000044800F0C3B9FFF775FFBDE81040014851
:103F100000F0BCB9600A0020500A0020B53D00083E
:103F2000014800F0B1B900BF600A0020014800F06C
:103F3000ADB900BF600A00202DE9F8434FF0000939
:103F400080460F461646D6E90154013D10D4A38998
:103F5000012B08D9B4F90E30013304D02146404674
:103F6000B84749EA0009013D6B1C04F16804EED131
:103F70003668002EE7D14846BDE8F8830FB400B597
:103F8000074A83B004AB106853F8042B816801938F
:103F900000F0D4FD03B05DF804EB04B0704700BF3F
:103FA0001800002030B5054689B008460C4600F0E0
:103FB0006FF901230222204907936B6B069102924D
:103FC00004A9421C04940191AC6805900392002B53
:103FD0002ED0626EB4F90C30D20701D4980521D5E9
:103FE000990406D4626E43F4005322F40052A38174
:103FF0006266284601AA214603F070FD636E002820
:104000000CBF0A254FF0FF35DA0702D4A3899B05C0
:1040100002D5284609B030BDA06D00F037F928461A
:1040200009B030BDA06D00F02FF9B4F90C30D7E71E
:104030002846FFF757FFCCE7D0A30008024B014604
:104040001868FFF7AFBF00BF1800002010B50C467E
:10405000B1F90E1000F0BAF8002803DB236D034419
:10406000236510BDA38923F48053A38110BD00BF35
:104070002DE9F0410C46B1F90C101F46CB05054661
:1040800016460BD421F48051A1813B463246284686
:10409000B4F90E10BDE8F04100F0AEB8B4F90E105E
:1040A0000223002200F07CF8B4F90C10EAE700BF0C
:1040B00010B50C46B1F90E1000F072F8B4F90C30DE
:1040C000421C0EBF23F4805343F480532065A38128
:1040D00010BD00BFB1F90E1000F050B870B58607E2
:1040E00047D0541E002A3ED00346CAB201E0013C2C
:1040F00039D303F8012B9D07F9D1032C2CD9CDB26C
:1041000005EB05250F2C1A4605EB054534D9A4F11E
:10411000100C2CF00F0603F1100EB6444FEA1C1CD5
:10412000C2E90055C2E9025510327245F8D10CF1CE
:10413000010214F00C0F03EB021204F00F0C13D069
:10414000ACF1040323F003030433134442F8045B8B
:104150009342FBD10CF003042CB1C9B21C4403F808
:10416000011BA342FBD170BD64461346002CF4D161
:10417000F9E703461446C0E7A446E1E7002238B554
:10418000064D044608462A60FDF788F9431C00D016
:1041900038BD2B68002BFBD0236038BD540A0020AB
:1041A00038B50C46114600228446074D20462A6049
:1041B0001A466446FDF77CF9431C00D038BD2B68D5
:1041C000002BFBD0236038BD540A002038B50C46C4
:1041D000114600228446074D20462A601A4664464E
:1041E000FDF73EF9431C00D038BD2B68002BFBD0F7
:1041F000236038BD540A002038B50C461146002211
:104200008446074D20462A601A466446FDF738F971
:10421000431C00D038BD2B68002BFBD0236038BD79
:10422000540A0020014B1868704700BF1800002096
:1042300070B50F4B0F4DAB42A3EB050607D0002422
:10424000B61055F8043B01349847A642F9D806F059
:104250008BF8094D094B5E1BAB424FEAA60606D010
:10426000002455F8043B01349847A642F9D870BDA4
:10427000F4A70008F4A70008F4A70008FCA70008AA
:10428000704700BF704700BF704700BF704700BF56
:1042900020F0030110F00300C0F1000051F8043BCE
:1042A00000F1040C4FEACC0C6FF000021CBF22FAA4
:1042B0000CF213434FF0010C4CEA0C2C4CEA0C4C62
:1042C000A3EB0C0222EA030212EACC1204BF51F85B
:1042D000043B0430F4D0C2F1000102EA0102B2FA58
:1042E00082F2C2F11F0200EBD2007047024B13B101
:1042F000024800F005B8704700000000098100087E
:10430000002301461A46184603F0A2BF2DE9F843E0
:1043100006460820894603F00BFF0546DFF8988023
:10432000304600F0FFFBD8F808305F6827F003073D
:10433000A7F11104A4EB09042C44B4FBF5F4013CEF
:1043400005FB04F4A54208DC0021304603F0CAFE58
:10435000D8F808303B44984205D0304600F0E8FBDE
:104360000020BDE8F8833046614203F0BBFE013017
:104370000FD0124AD8F808303F1B47F001075F60A2
:10438000136830461B1B136000F0D2FB0120BDE810
:10439000F8830021304603F0A5FED8F80820831AE0
:1043A0000F2BDADD43F001035360054B03491B6813
:1043B000C01A0860D1E700BF50010020680A002041
:1043C0004401002000297CD0F8B50C46064600F0D8
:1043D000A9FB54F8043C764FA4F1080523F0010131
:1043E0006818D7F808C04268844522F0030200F03C
:1043F0008380DB07426000EB020C33D454F8084C96
:10440000DCF804302D1B2144AC6807F1080C64452E
:1044100003F0010364D0D5F80CE0C4F80CE0CEF84A
:104420000840002B00F0818041F001036B600160C7
:10443000B1F5007F22D20122CB0849098A40796870
:1044400001330A437A6057F8331007EBC302083A86
:10445000C5E9021247F83350CD603046BDE8F84058
:1044600000F066BBDCF80430DB072BD541F001031C
:10447000B1F5007F44F8043C0160DCD3B1F5206F56
:104480004FEA512353D28B0903F1390003F138026B
:10449000C300F818FB580838984203D161E09B68C4
:1044A000984204D05A6822F003028A42F7D8D868AA
:1044B000C5E9023085603046DD60BDE8F84000F0B7
:1044C00037BB7047114407F1080C836863453FD040
:1044D000C268DA60936041F001036B606950A7E73E
:1044E000002B5FD10A44D0E90213CB60996042F0FF
:1044F00001036B60AA50B0E70A44D90707D454F807
:10450000083CED1A1A44D5E90213CB60996042F0D9
:1045100001036B60274BBD601B6893429DD8264BFF
:1045200030461968FFF7F2FE97E71144CDE7142BE8
:1045300008D9542B1DD80B0B03F16F0003F16E0249
:10454000C300A6E703F15C0003F15B02C300A0E730
:1045500041F00103C7E90455C5E902CC6B6069501D
:104560007BE70121921001FA02F279680A437A602E
:104570009EE7B3F5AA7F06D8CB0B03F1780003F1D1
:104580007702C30085E740F25452934206D88B0C61
:1045900003F17D0003F17C02C3007AE74FF47E73E0
:1045A0007E2276E741F001036B60016055E700BFB2
:1045B0005001002048010020980A00202DE9F04F0A
:1045C00001F10B05162D064683B024D8102900F200
:1045D000AD8000F0A7FA102518234FF0020CB84F59
:1045E0003B445C68A3F10802944200F01D81304610
:1045F0006368E268A16823F00303CA602344916002
:104600005A68083442F001025A6000F091FA2046DC
:1046100003B0BDE8F08F35F0070500F18780A942AF
:1046200000F2848000F07EFAB5F5FC7FC0F06F8167
:104630006B0A7FD0042B00F21E81AB0903F1390C09
:1046400003F1380E4FEACC009D4F384444680838D7
:10465000A04207D10DE0002AE16880F2DF808842A5
:1046600007D00C46636823F003035A1B0F2AF2DDC0
:10467000F446DFF850823C69444500F0BC80636832
:1046800023F00309A9EB05030F2B00F34581002B51
:10469000C7E9048880F22F81B9F5007FD7F804E0DC
:1046A00080F0C98001234FEAD9014FEA5919194412
:1046B00003FA09F357F831204EEA030E07EBC10362
:1046C000083BA260E360C7F804E047F83140D460DB
:1046D00001204FEAAC039840704532D810EA0E0F23
:1046E00007D12CF0030C400010EA0E0F0CF1040C63
:1046F000F9D007EBCC0AD646E146DEF80C300BE0E9
:1047000059681C4621F003014A1B0F2ADB6800F39D
:10471000BF80002A80F2E2809E45F1D109F10109B3
:1047200019F0030F0EF1080EE7D11FE10C233360DF
:1047300000246CE74FF400704FF0400C4FF03F0E38
:1047400082E7BC68636823F00309A94503D3A9EB9A
:1047500005030F2B52DC5C4B08201B6803F110088B
:1047600004EB0903009303F0E3FC584A8346136803
:10477000A844013305D008F1FF388044434203EADE
:1047800008084146304603F0ADFCB0F1FF3F8246D9
:104790004E4A00F0DC8004EB0903834200F2D5802E
:1047A0004B4B0BF1FF31186840448446186040F0D1
:1047B000FB801AEA010F40F0F780D7F808A0C84440
:1047C00048F00102CAF804205446424B196881425D
:1047D00038BF1860404B1968814238BF186022F01A
:1047E0000308A845A8EB050301D30F2B06DC3046D0
:1047F00000F09EF99CE7D7F804E069E7621943F0FE
:10480000010345F0010565603046BA600834536025
:1048100000F08EF9204603B0BDE8F08FA268304664
:10482000D16023448A60EBE6DC68A3427FF4DFAE0C
:104830000CF1020C1DE7B9F5206F4FEA59227DD328
:10484000142A00F2118102F15C03DB005B32F918DB
:10485000FB580839994203D1ECE09B68994204D097
:104860005A6822F003024A45F7D8D968C4E90231F0
:104870008C60DC602CE7142B6CD9542B00F2FD808B
:104880002B0B03F16F0C03F16E0E4FEACC00DBE64D
:10489000D4F808C03046661945F001056560CCF8CB
:1048A0000C30C3F808C042F00103C7E90466C6E94A
:1048B00002887360625000F03BF90834A7E600BF3D
:1048C0005001002058010020980A002044010020D7
:1048D000680A0020940A0020900A002021444A68B7
:1048E000304642F001024A6054F8082FD3609A60C3
:1048F00000F01EF98BE6A144D9F80430304643F0AD
:104900000103C9F8043000F013F908347FE64FEAD8
:10491000D50C05F1080362E6621943F0010145F088
:10492000010565603046C7E90422C2E9028851608A
:1049300044F8093000F0FCF8083468E64FEA9912B0
:1049400002F13903DB00383281E7BC4224D0BC6875
:10495000626844E703F15C0C03F15B0E4FEACC00A4
:1049600072E65AF80839534540F0D8801CF0030F1E
:104970000CF1FF3CF5D17B6823EA00037B6040002B
:1049800098423FF6DEAE18B9DBE6400009F10409B3
:104990001842FAD0CC46ACE6614B0BF1FF311868F7
:1049A00008EB000CC3F800C01068013070D004EBB5
:1049B0000902AAEB020262441A601AF00702CDE96A
:1049C000002340D0C2F108029244D04408EA01001A
:1049D0005A44121A02EA010B5946304603F082FB90
:1049E000421C019B71D0A0EB0A0000EB0B08186879
:1049F00048F001025844BC42C7F808A01860CAF841
:104A000004203FF4E1AEB9F10F0F44D94FF0050C8B
:104A10006168A9F10C0222F0070201F001011143C3
:104A200061600F2A04EB0201C1E901CC55D8DAF824
:104A30000420C9E60120921000FA02F24EEA020EAA
:104A4000C7F804E012E70AEB08020A40ABEB0202E7
:104A500002EA010B5946304603F044FB431C019B1C
:104A6000C1D1DDF800B0C2E7542A18D84FEA193294
:104A700002F16F03DB006E32E9E6B3F5AA7F18D8C6
:104A8000EB0B03F1780C03F1770E4FEACC00DBE57A
:104A9000C2F800A091E70123CAF80430A7E6B2F5F6
:104AA000AA7F25D84FEAD93202F17803DB007732AA
:104AB000CDE640F25452934225D8AB0C03F17D0C65
:104AC00003F17C0E4FEACC00BEE5009A4FF0000BDC
:104AD000083A9044A8EB0A0889E7304604F1080137
:104AE0000093FFF76FFC009BD7F808A018689EE7BB
:104AF00040F254539A420DD84FEA994202F17D0395
:104B0000DB007C32A3E64FF47E704FF07F0C4FF059
:104B10007E0E99E54FF47E737E2298E67B682EE741
:104B2000680A00200148FFF7AFBB00BF580A002009
:104B30000148FFF7ABBB00BF580A00202DE9F04F3A
:104B4000DDB0914609911C4683460F9303F0C6FAE7
:104B5000036818461993FFF79BFB08221890002161
:104B60002CA8FFF7BBFABBF1000F04D0DBF8343000
:104B7000002B01F03480099B5A6EB3F90C30D50735
:104B800002D4980540F16986990407D4099943F441
:104B900000534A6E8B8122F400524A661A0740F194
:104BA000C880099A1269002A00F0C38003F01A0233
:104BB0000A2A00F0CD80002300249E46CDE931333F
:104BC000002333AACDE91634DA4614464D46CDE922
:104BD0001BEE3092CDF868E0CDF880E0CDF874E0BF
:104BE000CDF82CE0CDF848E02F468B4BD3F8E460AD
:104BF00003F06EFA0DF1B00C03463A46504628A970
:104C0000CDF800C0B047002800F0C180C0F2B780E6
:104C1000289B252B01D00744E7E7B7EB050806469C
:104C200040F0B98000224FF0FF3393460A937B781F
:104C30007E1C8DF897200C9299460136A9F120032D
:104C40005A2B00F2EB80DFE813F0F702E900E900ED
:104C5000F302E900E900E900D502E900E9006A0091
:104C60006602E90062026F02E9006B025B005B0012
:104C70005B005B005B005B005B005B005B00E900CE
:104C8000E900E900E900E900E900E9006101E90063
:104C9000F1013503610161016101E900E900E90009
:104CA000E9003103E900E9000103E900E900E90056
:104CB0000A02E9001F03E900E900C806E900E9006B
:104CC000E900E900E900E900E900E9006101E90023
:104CD000F1013B0261016101610115033B02ED013C
:104CE000E9004D03E900BB02C3068C02ED01E900B7
:104CF0000A027200C506E900E900E906E90072004F
:104D00000022A9F1300316F8019B02EB820203EBAB
:104D10004202A9F13003092BF5D90C928EE70F9BC3
:104D200053F8042B002A0C920F93C0F2ED813378D4
:104D300082E7099D5846294603F046F8002841F0CD
:104D40009D83B5F90C3003F01A020A2A7FF433AFC1
:104D50000999B1F90E20002AFFF62DAF4A6ED5074A
:104D600002D4980541F1E28023464A465846099903
:104D700001F0DCFC0B900B985DB0BDE8F08F0822D1
:104D800000212CA8FFF7AAF9012007442DE7B7EB73
:104D90000508064610D0329BC4E9005843443293BC
:104DA000319B0133072B319310DC08340B9B4344B8
:104DB0000B93002E7FF436AF329B002B41F08F8097
:104DC0000022099B3192B3F90C3019E05046099941
:104DD00030AA01F027FD80B933ACE7E750460999C6
:104DE00030AA01F01FFD002800F08580D3460E9BFD
:104DF0001BB158460E99FFF7E5FA099BB3F90C3041
:104E0000099A526ED10740F103815B0601F142839A
:104E10000B985DB0BDE8F08F580500201096B9F1F1
:104E2000000FC9D0012300228DF80C91069343ADE9
:104E30008DF897200D93CDE913220E920A921192CC
:104E40001BF0020302D00699023106911BF0840880
:104E5000329E05D10C9906980F1A002F00F39B8003
:104E60006AB101226260319A013601320DF1970177
:104E7000072A32963192216000F3BE83083463B171
:104E800002236360319B0236013326AA072B329638
:104E90003193226000F3BD830834B8F1800F00F035
:104EA000C2820A9B0D9A9F1A002F00F3FD821BF409
:104EB000807F40F021820D9B25601E446360319B02
:104EC00032960133072B319300F32F8308341BF004
:104ED000040F05D00C9B069A9D1A002D00F3A483A5
:104EE000DDE90B3206998A42ACBF9B185B180B9325
:104EF000002E7FF473AF002331930E9B1BB15046FD
:104F00000E99FFF75FFA33AC109D6DE60F9B10967C
:104F1000073323F00703F3E802670F9327F00043FA
:104F20001F931E964FF0FF32DDE91E01AC4BCDE919
:104F30001667FCF737F8002840F0F484DDE91E011D
:104F40004FF0FF32A64BFBF71BFD002840F0EA8430
:104F50000022002330463946FBF708FD002841F0C7
:104F6000F1809DF89720002103209E4D9E4B2BF051
:104F7000800B0E910690B9F1470FD8BF1D46CDE9C1
:104F800013110A910D901191002A3FF459AF069B1D
:104F90000133069354E7102F319A41F3F481DFF87F
:104FA0004CC221463046099C2E46CDF854C0654679
:104FB000219304E0103F102F01F1080116DD1023AA
:104FC00001321030072ACDE931200D604B60F1DD50
:104FD0002146504630AA01F025FC00287FF406AF98
:104FE000DDE93120103F102F33A9E8DC35460C46AF
:104FF0000646219B013215993E44072ACDE9312608
:105000002160676000F3DB859DF89720083427E76F
:105010009A053FF5FAAE099CA06DFFF737F9B4F990
:105020000C30F2E633784BF0200B05E60F9BB9F11C
:10503000430F109603F1040600F01C851BF0100FBF
:1050400040F018850F9B43AD1B688DF80C31012390
:1050500006930D9300220F968DF89720EBE6002320
:105060000F9F109657F8045B8DF89730002D00F0D5
:10507000F084B9F1530F00F0C8851BF010031193B1
:1050800040F0C3850A9B002BC0F216871A462846BB
:10509000119903F05BF80E90002801F0A5820E9B99
:1050A00011995B1B0D9323EAE3734FF07309CDE96C
:1050B00013119DF897200F970A9106930E9163E7BD
:1050C0001BF0200F109600F0FC800F9B073323F09D
:1050D00007031846596850F8083B0A460F90002904
:1050E000C0F2FF830A990029C0F2728253EA0201DA
:1050F0002BF0800740F06D820A9A002A40F06E8201
:10510000BB460D925CAD65E10C9B5B420C93337822
:105110004BF0040B90E52B238DF8973033788BE51B
:1051200033784BF0800B87E5314611F8019BB9F1DC
:105130002A0F01F0CD82A9F13003092B98BF00227C
:1051400001F2298111F8019B02EB820203EB42027A
:10515000A9F13003092BF5D942EAE2730E460A930E
:105160006CE547F630030F9AADF8983052F8043BDF
:1051700002210F924FF0780900221D4810964BF043
:1051800002071A9000200A9D8DF89700002DC0F2AA
:105190000A8153EA020027F0800B40F00381002DC2
:1051A00040F02285002940F0998417F001030D9307
:1051B00000F0858330230DF26F158DF86F3109E112
:1051C0001BF0200F109600F095830F9B0B9A1B6825
:1051D0001A60D2175A600F9B04330F9394E600BFF6
:1051E000FFFFEF7FD8A30008D4A30008B8A50008EC
:1051F000E4A30008504602F071FF436818461D936F
:10520000FFF746F820900746504602F067FF836894
:105210001B93002F3FF48BAD1B9A3378002A3FF489
:105220000BAD1278002A3FF407AD4BF4806B03E519
:1052300033784BF0010BFFE49DF897203378002A78
:105240007FF4FAAC20228DF89720F5E410964BF00D
:10525000100B1BF0200200F0E3820F9B073323F0BA
:10526000070319465A6851F8083B0F9100212BF4A7
:10527000806787E73378682B03BF73784BF4007B34
:1052800001364BF0400BD7E410964BF0100717F0A7
:10529000200200F0D4820F9B0121073323F0070383
:1052A00018465A6850F8083B0F906BE733784BF07C
:1052B000080BC1E44BF0100B1BF0200F10967FF48D
:1052C00004AF0F9A1BF0100F52F8043B0F9240F0FE
:1052D00003831BF0400F00F0FB8243F3C032114602
:1052E0001BB2FCE633786C2B03BF73784BF0200BBA
:1052F00001364BF0100B9FE4B9F1650F40F32081AC
:10530000DDE9160100220023FBF726FB002800F050
:10531000C68101236360319BB54A01330136072BF7
:1053200032963193226000F364840834279B129AEA
:10533000934280F29A82189B199A1E44C4E9002372
:10534000319B32960133072B319300F37783083476
:10535000129B5D1E002D7FF7BAAD102D319B40F3DF
:10536000D880DFF890921027DDF82480CDF8549093
:1053700004E00834103D102D40F3CD800133103689
:10538000072BC4E90097CDE93136F2DD414650469E
:1053900030AA01F047FA00287FF428ADDDE9313664
:1053A00033ACE7E75F46012900F0138102295CADC9
:1053B0001ED11A9803F00F01415C1B0943EA0273E6
:1053C000120905F8011D53EA0201F3D1BB465CAB9B
:1053D0005B1B0D930A9A0D9900238A42B8BF0A46B7
:1053E000CDE9133306920E939DF897201193CBE5E8
:1053F00003F00701DB0843EA4273D208303153EA75
:105400000206284605F8011DF2D1FE07DED5302937
:10541000DCD03023023805F8013C5CAB1B1ABB46DC
:1054200005460D93D6E70C9B069A9F1A002F7FF72F
:1054300038AD102F319B41F384806E4822463146AF
:105440004FF010080646099C159004E0103F102FFD
:1054500002F1080215DD01331031072BC2E90068A3
:10546000CDE93131F2DD2146504630AA01F0DAF9BA
:1054700000287FF4BBACDDE93131103F102F33AA97
:10548000E9DC14460E460133159A3E44072BCDE95C
:1054900031362260676000F3C5820A9B0D9A08349A
:1054A0009F1A002F7FF703AD524A102F319B1592A0
:1054B00023DD32464FF010082E46099D04E0103FD0
:1054C000102F04F1080416DD01334A491032072B6E
:1054D000C4E90018CDE93132F1DD2946504630AA41
:1054E00001F0A0F900287FF481ACDDE93132103FF2
:1054F000102F33ACE8DC354616460133159A3E448E
:10550000072BCDE931362260676000F37D810834D6
:10551000CDE4384A1592159A01332E44072B2260A8
:105520006560CDE931367FF7D1AC5046099930AA94
:1055300001F078F900287FF459AC329E33ACC6E410
:10554000129B319F012B06F1010607F1010704F1BF
:10555000080940F315810123072FCDE93176256035
:10556000636000F3CC82189B0137199A1E44072F01
:10557000C9E90023CDE9317600F3B48209F10809C5
:10558000129B0022DDE916015C1E0023FBF7E4F903
:10559000002840F00E81013701352644072FCDE960
:1055A0003176C9F80050C9F8044000F3F58009F1DC
:1055B00008091C9B01371E44C9F80430072F2AAB89
:1055C000CDE93176C9F80030AFDC09F108047EE49A
:1055D0005F460A2B72F1000180F09E8230338DF815
:1055E0006F310123BB460D930DF26F15F2E600BF3C
:1055F00014A40008A8A500085046099930AA1593DC
:1056000001F010F900287FF4F1AB329E159B33AC0A
:1056100035E45046099930AA01F004F900287FF4D6
:10562000E5AB329E33AC38E4102D319B40F3378725
:10563000DFF8E4821027DDF82490CDF8548004E0F0
:10564000103D102D04F1080415DD01331036072B31
:10565000C4E90087CDE93136F2DD4946504630AA2B
:1056600001F0E0F800287FF4C1ABDDE93136103DF0
:10567000102D33ACE9DC0133159A2E44072BC4E915
:105680000025CDE931367FF72BAC5046099930AA79
:1056900001F0C8F800287FF4A9AB329E20E42799D6
:1056A000002940F3E780DDE911839845A8BF9846BB
:1056B000B8F1000F0ADD319B46440133072BC4E9E2
:1056C00000583296319300F345860834119FB8F1A3
:1056D000000FA8BFA7EB0807002F00F31E83DDF81B
:1056E00044901BF4806FA94440F05185279B129A87
:1056F0009342C0F2D7811BF0010F40F0D381129A80
:10570000AF18A7EB0907D51AAF42A8BF2F46002F45
:105710000BDD319B3E440133072BC4F800906760DA
:105720003296319300F37A860834002FA8BFED1B20
:10573000002D7FF7CCAB102D319B7FF7EAAEDFF861
:10574000DC911027DDF82480CDF8549004E0083473
:10575000103D102D7FF7DFAE01331036072BC4E963
:105760000097CDE93136F2DD4146504630AA01F0CE
:1057700059F800287FF43AABDDE9313633ACE7E77E
:105780001BF0010F7FF4E7AE0123072FCDE931763F
:10579000256063607FF70DAF5046099930AA01F08C
:1057A00041F800287FF422ABDDE931760DF1CC0918
:1057B000FFE6129B012B7FF7FCAE112B40F39B877A
:1057C000564BCDF828B010259B46DDF82480159364
:1057D00005E009F10809103C102C40F3C4820137A0
:1057E0001036072FC9E900B5CDE93176F1DD414624
:1057F000504630AA01F016F800287FF4F7AADDE938
:1058000031760DF1CC09E6E75046099930AA01F04E
:1058100009F800287FF4EAAA329E33ACFFF747BBB1
:105820000F9951F8043B0F911BF010017FF41EAD4E
:105830001BF0400000F0A6820A469BB216E50F99C5
:1058400051F8043B0F9117F010013FD117F04000C1
:1058500037D00A469BB2012194E4099DA86DFEF75A
:1058600013FDB5F90C30FFF78FB91BF0010F3FF4B2
:105870002EAB60E501236360319B294A0133013679
:10588000072B32963193226000F3478508340029B4
:1058900040F02482129A0BF0010313433FF417AB3C
:1058A000189B199A1E44C4E90023319B3296013398
:1058B000072B319300F32D8304F108021FE25CAD46
:1058C00088E517F400721CBF0246DBB2012159E4DF
:1058D0001BF4007F40F0EA82DA1711460029BFF678
:1058E00001AC5B425F464FF02D004FF0010162EBCF
:1058F000420248E41BF0100F40F0EA811BF0400F19
:1059000040F0CE821BF4007F00F0E2810F9B0B9AE7
:105910001B681A705FE400BFB8A50008A8A50008BE
:1059200014A40008DDE9160102460B46FBF73AFB1A
:10593000002840F04086B9F1610F00F00985B9F107
:10594000410F00F0D6820A9B013300F0FE8529F05A
:105950002003472B00F0B7850E90DDE91612002AD0
:1059600013464BF48078C0F2C48400231593DDE91C
:105970001623CDE92223A9F14103252B00F20F8242
:10598000DFE813F01E030D020D020D02D902AB0376
:105990000D020D020D020D020D020D020D020D028F
:1059A0000D020D020D020D020D020D020D020D027F
:1059B0000D020D020D020D020D020D020D020D026F
:1059C0000D020D021E030D020D020D02D902AB03E2
:1059D00010963EE45F46109659E4B94B10961A9320
:1059E0001BF020026CD00F9B073323F007031946EE
:1059F0005A6851F8083B0F911BF0010F09D053EA88
:105A0000020106D030218DF899904BF0020B8DF8F1
:105A1000981002212BF48067FFF7B4BBA94B1096B6
:105A20001A93DDE75046099930AA00F0FBFE0028E2
:105A30007FF4DCA9329E33ACFFF733BA50460999A4
:105A400030AA00F0EFFE00287FF4D0A9329E33ACDC
:105A50007EE40A9B2946062B28BF06232A460A9580
:105A60000E95CDE91311984D06930F970D93119153
:105A7000FFF78ABA082200212EA8FEF72FFB0F9A03
:105A800043AD2EAB29465046126804F091F9034607
:105A900001330D9000F027860D9B23EAE3730693F4
:105AA000FFF7D8BA189A19991644C4E90012319A26
:105AB00032960132072A319200F3588408341EE6E8
:105AC0000F9951F8043B0F911BF0100194D11BF07A
:105AD000400000F05E810A469BB28DE70A9B5CADF8
